:100000000C946D000C9495000C9495000C94950044
:100010000C9495000C9495000C9495000C9495000C
:100020000C9495000C9495000C9495000C949500FC
:100030000C9495000C9495000C9495000C949500EC
:100040000C940F040C9495000C94F0060C94220769
:100050000C9495000C9495000C9495000C949500CC
:100060000C9495000C9495006F0275027F028D022E
:100070008F0295029F02AD02BF02C102000000087C
:10008000000201000003040700000000000000005F
:10009000010204081020408001020408102001021F
:1000A00004081020040404040404040402020202EC
:1000B00002020303030303030000000023002600E1
:1000C000290000000000250028002B00000000008F
:1000D000240027002A007F01520711241FBECFEF02
:1000E000D8E0DEBFCDBF11E0A0E0B1E0EAE5F2E18B
:1000F00002C005900D92A434B107D9F722E0A4E420
:10010000B1E001C01D92A331B207E1F710E0CAEDE2
:10011000D0E004C02297FE010E942709C63DD10706
:10012000C9F70E94AC080C942B090C94000061E004
:10013000809106010E944C0560E0809104010E94BC
:100140004C0561E0809102010E944C0560E08091C5
:1001500000010C944C0560E0809106010E944C0562
:1001600060E0809104010E944C0560E080910201F2
:100170000E944C0560E0809100010C944C056CE1FC
:1001800082E691E00E94FC03209108013091090170
:100190008217930724F4909347018093460180913E
:1001A000460190914701089526E040E855E260E05D
:1001B00070E086E791E00E948E0661E08091060182
:1001C0000E94130561E0809104010E94130561E023
:1001D000809102010E94130561E0809100010E945C
:1001E00013054CE350E060E070E088E491E00E9489
:1001F000D7010C94BF0068EC70E088E491E00E94A5
:10020000DE0264EF71E080E090E00E947C0468E32D
:100210007FEF88E491E00E94DE0264EF71E080E00D
:1002200090E00C947C040E94BF00609146017091A4
:1002300047014AE050E086E791E00E949308609110
:100240004401709145014AE050E086E791E00E9448
:10025000930868EC70E080E090E00E947C0480915C
:1002600046019091470197FD49C02091440130918A
:100270004501AC01421B530B9A0157FF03C0319556
:100280002195310940910E0150910F012417350736
:10029000F4F00097E1F066E171E086E791E00E94FA
:1002A000DE070E94AB000E94FB0080914601909106
:1002B0004701909345018093440160910C01709136
:1002C0000D01882777FD8095982F0C947C04209150
:1002D0000A0130910B018217930744F460E171E049
:1002E00086E791E00E94DE070C94AB006BE171E0C1
:1002F00086E791E00E94DE070C9497000895EF9244
:10030000FF920F931F9300E21EE420E030E043E0F1
:1003100064E082E691E00E9467038AE0E82EF12C17
:100320000BE010E02CE030E04DE050E068EC70E0D5
:1003300088E491E00E94A1011F910F91FF90EF903E
:100340000895EF92FF920F931F93CF93DF93EC01E9
:10035000842F1B861A86198218821E8A1F8A188E7D
:10036000198E7F836E834C875D873F872E87198B1D
:10037000088BFB8AEA8A61E00E94130561E08E85A2
:100380000E94130561E088890E94130561E08A8953
:100390000E9413051D8A1C8A84E090E09987888753
:1003A000DF91CF911F910F91FF90EF900895CF9221
:1003B000DF92EF92FF92CF93DF93EC016A017B0112
:1003C0002E813F81442737FD4095542F60E077E828
:1003D00083E993E00E940609CA01B901A7019601C9
:1003E0000E9406092A833B834C835D83DF91CF9172
:1003F000FF90EF90DF90CF9008950F931F93CF93CE
:10040000DF93EC018B01888599850297F9F46130BF
:10041000710571F02CF461157105C1F460E009C03B
:100420006230710559F06330710581F460E007C0F6
:1004300061E08C850E944C0561E005C061E08C851F
:100440000E944C0560E08E850E944C058885998548
:100450000497B9F501301105B1F04CF401151105FF
:1004600081F561E08C850E944C0560E011C002308E
:100470001105B9F00330110521F561E08C850E946A
:100480004C0560E013C060E08C850E944C0561E083
:100490008E850E944C0561E088890E944C0560E0D1
:1004A0000DC060E08C850E944C0561E08E850E9445
:1004B0004C0560E088890E944C0561E08A890E94B1
:1004C0004C0588859985059709F073C00A30110598
:1004D00008F06FC0F801EC5CFF4F0C94250960E058
:1004E0008C850E944C0561E051C060E08C850E94C3
:1004F0004C0561E08E850E944C0560E04BC060E0D9
:100500008C850E944C0561E08E850E944C0560E060
:1005100088890E944C0561E041C060E001C061E053
:100520008C850E944C0561E005C061E08C850E94CD
:100530004C0560E08E850E944C0560E009C061E0DA
:100540008C850E944C0560E08E850E944C0561E020
:1005500088890E944C0561E00DC061E08C850E9495
:100560004C0560E08E850E944C0561E088890E9400
:100570004C0560E08A890E944C0560E013C061E090
:1005800001C060E08C850E944C0560E08E850E9471
:100590004C0561E088890E944C0560E08A890E94D0
:1005A0004C0561E08C89DF91CF911F910F910C94E4
:1005B0004C05DF91CF911F910F9108954F925F925B
:1005C0006F927F928F929F92AF92BF92CF92DF9263
:1005D000EF92FF920F931F93CF93DF93EC01CB0128
:1005E00077FF04C088279927861B970B6C01161686
:1005F00017062CF481E090E09983888304C0672B70
:1006000011F01982188204E010E08AE0E82EF12C43
:10061000C114D10409F44AC00E9459048E889F88ED
:10062000A88CB98C2B013C01481859086A087B0832
:100630008A809B80AC80BD80481459046A047B0486
:1006400058F36E8B7F8B888F998F288139818A85AB
:100650009B852130310559F401969B878A872E812D
:100660003F818217930771F41B861A860BC0892B72
:1006700021F48E819F819B878A878A859B8501973C
:100680009B878A8781E0C81AD108288539858A85A1
:100690009B852530310511F4B70101C0B8010E94D6
:1006A000D008BC01CE010E94FD01B2CFDF91CF91F5
:1006B0001F910F91FF90EF90DF90CF90BF90AF9080
:1006C0009F908F907F906F905F904F900895CF9202
:1006D000DF92EF92FF920F931F93CF93DF93EC0182
:1006E000862F680179016883498391E0641390E063
:1006F0009A8361E00E94130560E089810E941305DE
:10070000CF82D886E986FA86DF91CF911F910F912B
:10071000FF90EF90DF90CF9008950F931F93CF93AA
:10072000DF93EC018A81882321F061E088810E94B7
:10073000130560E088810E944C0582E090E00E94F1
:10074000A40461E088810E944C058AE090E00E9448
:10075000A40460E088810E944C058A81882321F0EE
:1007600060E088810E9413050E9459046B837C839A
:100770008D839E8389810E948205892B99F40E9432
:1007800059040B811C812D813E81601B710B820BF2
:10079000930B0F81188529853A85061717072807B7
:1007A000390740F70E9459046B837C838D839E83B5
:1007B00089810E948205892B99F00E9459040B813E
:1007C0001C812D813E81601B710B820B930B0F816D
:1007D000188529853A85061717072807390740F72E
:1007E0000E9459042B813C81CB01821B930BDF912A
:1007F000CF911F910F910895CF93DF931F92CDB7A3
:10080000DEB769830E948D03698170E00E94BC0895
:10081000CB01969587950F90DF91CF9108951F9208
:100820000F920FB60F9211242F933F938F939F93A4
:10083000AF93BF9380916E0190916F01A091700171
:10084000B091710130916D0123E0230F2D3720F419
:100850000196A11DB11D05C026E8230F0296A11D1A
:10086000B11D20936D0180936E0190936F01A09351
:100870007001B09371018091720190917301A09108
:100880007401B09175010196A11DB11D8093720193
:1008900090937301A0937401B0937501BF91AF91D0
:1008A0009F918F913F912F910F900FBE0F901F90AE
:1008B00018953FB7F8948091720190917301A091BF
:1008C0007401B091750126B5A89B05C02F3F19F0A2
:1008D0000196A11DB11D3FBF6627782F892F9A2F42
:1008E000620F711D811D911D42E0660F771F881FE9
:1008F000991F4A95D1F70895CF92DF92EF92FF9218
:10090000CF93DF936B017C010E945904EB01C1146A
:10091000D104E104F10489F00E94BB080E9459044B
:100920006C1B7D0B683E734090F381E0C81AD108C0
:10093000E108F108C851DC4FEACFDF91CF91FF9079
:10094000EF90DF90CF9008958230910538F0880FB6
:10095000991F880F991F05970197F1F708957894CB
:1009600084B5826084BD84B5816084BD85B58260B4
:1009700085BD85B5816085BDEEE6F0E08081816052
:100980008083E1E8F0E01082808182608083808152
:1009900081608083E0E8F0E0808181608083E1EB2A
:1009A000F0E0808184608083E0EBF0E08081816012
:1009B0008083EAE7F0E080818460808380818260C8
:1009C00080838081816080838081806880831092B1
:1009D000C1000895833081F028F4813099F082308D
:1009E000A1F008958730A9F08830B9F08430D1F4AF
:1009F000809180008F7D03C0809180008F778093ED
:100A00008000089584B58F7702C084B58F7D84BD42
:100A100008958091B0008F7703C08091B0008F7DE2
:100A20008093B0000895CF93DF9390E0FC01E057EE
:100A3000FF4F2491FC01EC55FF4F8491882349F12D
:100A400090E0880F991FFC01E453FF4FA591B491EA
:100A50008E539F4FFC01C591D4919FB7611108C07F
:100A6000F8948C91209582238C93888182230AC0EC
:100A7000623051F4F8948C91322F309583238C930B
:100A80008881822B888304C0F8948C91822B8C936C
:100A90009FBFDF91CF9108950F931F93CF93DF9363
:100AA0001F92CDB7DEB7282F30E0F901E458FF4F91
:100AB0008491F901E057FF4F1491F901EC55FF4F74
:100AC00004910023C9F0882321F069830E94EA047D
:100AD0006981E02FF0E0EE0FFF1FEE53FF4FA5916D
:100AE000B4919FB7F8948C91611103C01095812344
:100AF00001C0812B8C939FBF0F90DF91CF911F91ED
:100B00000F910895CF93DF93282F30E0F901E45837
:100B1000FF4F8491F901E057FF4FD491F901EC5553
:100B2000FF4FC491CC2391F081110E94EA04EC2F75
:100B3000F0E0EE0FFF1FE854FF4FA591B4912C9108
:100B40002D2381E090E021F480E002C080E090E07D
:100B5000DF91CF910895FC01818D228D90E0805C22
:100B60009F4F821B91098F7399270895FC01918DE6
:100B7000828D981731F0828DE80FF11D858D90E000
:100B800008958FEF9FEF0895FC01918D828D981746
:100B900061F0828DDF01A80FB11D5D968C91928D61
:100BA0009F5F9F73928F90E008958FEF9FEF08955E
:100BB00088E497E0892B49F080E090E0892B29F0C8
:100BC0000E94480781110C9400000895FC01848D57
:100BD000DF01A80FB11DA35ABF4F2C91848D90E067
:100BE00001968F739927848FA689B7892C93A08942
:100BF000B1898C9180648C93938D848D981306C0F9
:100C00000288F389E02D80818F7D80830895CF93C2
:100C1000DF93EC01888D8823C9F0EA89FB89808104
:100C200085FD05C0A889B9898C9186FD0FC00FB6D6
:100C300007FCF5CF808185FFF2CFA889B9898C9117
:100C400085FFEDCFCE010E94E605E7CFDF91CF9182
:100C50000895CF92DF92FF920F931F93CF93DF936C
:100C60001F92CDB7DEB76C0181E0D60158968C9308
:100C700058975B969C915B975C968C915C979813C8
:100C800007C05096ED91FC915197808185FD2EC053
:100C9000F601038D10E00F5F1F4F0F731127F02E29
:100CA000F601848DF81211C00FB607FCF9CFD601FA
:100CB0005096ED91FC915197808185FFF1CFC6014F
:100CC00069830E94E6056981EBCF838DE80FF11DF2
:100CD000E35AFF4F6083D6015B960C935B97529665
:100CE000ED91FC915397808180620CC0D60156969D
:100CF000ED91FC91579760835096ED91FC9151973F
:100D000080818064808381E090E00F90DF91CF91BB
:100D10001F910F91FF90DF90CF900895BF92CF92D7
:100D2000DF92EF92FF92CF93DF93EC016A017B0198
:100D3000B22EE889F98982E08083411581EE580757
:100D400061057105A1F060E079E08DE390E0A70115
:100D500096010E94E4082150310941095109569534
:100D6000479537952795211580E1380798F0E88950
:100D7000F989108260E874E88EE190E0A70196019D
:100D80000E94E408215031094109510956954795BF
:100D900037952795EC85FD853083EE85FF8520838B
:100DA000188EEC89FD89B082EA89FB898081806197
:100DB0008083EA89FB89808188608083EA89FB8956
:100DC000808180688083EA89FB8980818F7D808330
:100DD000DF91CF91FF90EF90DF90CF90BF9008957B
:100DE0001F920F920FB60F9211242F938F939F9300
:100DF000EF93FF93E0918601F09187018081E0916C
:100E00008C01F0918D0182FD12C0908180918F0143
:100E10008F5F8F7320919001821751F0E0918F01C5
:100E2000F0E0EA58FE4F958F80938F0101C08081DA
:100E3000FF91EF919F918F912F910F900FBE0F9087
:100E40001F9018951F920F920FB60F9211242F9397
:100E50003F934F935F936F937F938F939F93AF9342
:100E6000BF93EF93FF9386E791E00E94E605FF9121
:100E7000EF91BF91AF919F918F917F916F915F9112
:100E80004F913F912F910F900FBE0F901F9018958B
:100E900086E791E00E94AB0521E0892B09F420E070
:100EA000822F0895109279011092780188EE93E0D4
:100EB000A0E0B0E080937A0190937B01A0937C0145
:100EC000B0937D0187E291E0909377018093760162
:100ED00085EC90E0909383018093820184EC90E014
:100EE000909385018093840180EC90E0909387013A
:100EF0008093860181EC90E0909389018093880132
:100F000082EC90E090938B0180938A0186EC90E0D4
:100F100090938D0180938C0110928F01109290011B
:100F200010929101109292010895CF92DF92EF9268
:100F3000FF920F931F93CF93DF937C016A01EB0124
:100F400000E010E00C151D0571F06991D701ED91DD
:100F5000FC910190F081E02DC7010995892B19F0D2
:100F60000F5F1F4FEFCFC801DF91CF911F910F91FE
:100F7000FF90EF90DF90CF9008956115710581F09B
:100F8000DB010D900020E9F7AD0141505109461BEE
:100F9000570BDC01ED91FC910280F381E02D099467
:100FA00080E090E00895DC01ED91FC910190F081EA
:100FB000E02D099463E371E00C94BD070F931F9338
:100FC000CF93DF93EC010E94BD078C01CE010E94FC
:100FD000DA07800F911FDF91CF911F910F91089534
:100FE0008F929F92AF92BF92CF92DF92EF92FF9239
:100FF0000F931F93CF93DF93CDB7DEB7A1970FB6B3
:10100000F894DEBF0FBECDBF7C01C42EE52FCB010F
:10101000D22E19A221E02D1510F02AE0D22E8E0139
:101020000F5D1F4F8D2C912CA12CB12C6C2D7E2F80
:10103000A50194010E94E4088C2DD29E80191124F0
:10104000015011098A3014F4805D01C0895CF801F7
:101050008083211531054105510521F0C22EE32F72
:10106000CA01E4CFB801C7010E94BD07A1960FB61F
:10107000F894DEBF0FBECDBFDF91CF911F910F91CE
:10108000FF90EF90DF90CF90BF90AF909F908F90A8
:101090000895CF92DF92EF92FF920F931F93CF9319
:1010A000DF93EC016A017B012115310579F4E881B8
:1010B000F9810190F081E02D642FDF91CF911F9194
:1010C0000F91FF90EF90DF90CF9009942A30310577
:1010D000E9F477FF1AC06DE20E94D3078C01442720
:1010E0005527BA014C195D096E097F092AE0CE0126
:1010F0000E94F007800F911FDF91CF911F910F91F8
:10110000FF90EF90DF90CF9008952AE0B701A601FD
:10111000CE01DF91CF911F910F91FF90EF90DF9063
:10112000CF900C94F0070F931F93CF93DF93EC01B4
:101130009A01AB01662757FD6095762F0E944908FA
:101140008C01CE010E94DA07800F911FDF91CF91B1
:101150001F910F91089508950E94AF040E94AB085B
:101160000E94D400C8EDD5E00E9413012097E1F35E
:101170000E94D805F9CF0895AA1BBB1B51E107C0F7
:10118000AA1FBB1FA617B70710F0A61BB70B881F17
:10119000991F5A95A9F780959095BC01CD010895A6
:1011A00097FB072E16F4009407D077FD09D00E9414
:1011B000BC0807FC05D03EF4909581959F4F08959B
:1011C000709561957F4F0895A1E21A2EAA1BBB1B53
:1011D000FD010DC0AA1FBB1FEE1FFF1FA217B30703
:1011E000E407F50720F0A21BB30BE40BF50B661F19
:1011F000771F881F991F1A9469F7609570958095DD
:1012000090959B01AC01BD01CF010895052E97FB80
:101210001EF400940E941D0957FD07D00E94E408A7
:1012200007FC03D04EF40C941D0950954095309561
:1012300021953F4F4F4F5F4F089590958095709542
:1012400061957F4F8F4F9F4F0895EE0FFF1F0590C1
:0A125000F491E02D0994F894FFCF0B
:10125A00060007000800090090010A00D0070A00EA
:10126A00206C6173742053746F7000666F727761BB
:10127A007264000000000029069507AB05C405B694
:10128A000507060D0A006E616E00696E66006F76CC
:04129A0066002E00BC
:107E0000112484B714BE81FFF0D085E080938100F7
:107E100082E08093C00088E18093C10086E0809377
:107E2000C20080E18093C4008EE0C9D0259A86E02C
:107E300020E33CEF91E0309385002093840096BBD3
:107E4000B09BFECF1D9AA8958150A9F7CC24DD24C4
:107E500088248394B5E0AB2EA1E19A2EF3E0BF2EE7
:107E6000A2D0813461F49FD0082FAFD0023811F036
:107E7000013811F484E001C083E08DD089C08234E0
:107E800011F484E103C0853419F485E0A6D080C0E4
:107E9000853579F488D0E82EFF2485D0082F10E0AE
:107EA000102F00270E291F29000F111F8ED06801E7
:107EB0006FC0863521F484E090D080E0DECF843638
:107EC00009F040C070D06FD0082F6DD080E0C81688
:107ED00080E7D80618F4F601B7BEE895C0E0D1E017
:107EE00062D089930C17E1F7F0E0CF16F0E7DF06D8
:107EF00018F0F601B7BEE89568D007B600FCFDCFD4
:107F0000A601A0E0B1E02C9130E011968C91119780
:107F100090E0982F8827822B932B1296FA010C0160
:107F200087BEE89511244E5F5F4FF1E0A038BF0790
:107F300051F7F601A7BEE89507B600FCFDCF97BE46
:107F4000E89526C08437B1F42ED02DD0F82E2BD052
:107F50003CD0F601EF2C8F010F5F1F4F84911BD097
:107F6000EA94F801C1F70894C11CD11CFA94CF0C13
:107F7000D11C0EC0853739F428D08EE10CD085E9AC
:107F80000AD08FE07ACF813511F488E018D01DD067
:107F900080E101D065CF982F8091C00085FFFCCF94
:107FA0009093C60008958091C00087FFFCCF809118
:107FB000C00084FD01C0A8958091C6000895E0E648
:107FC000F0E098E1908380830895EDDF803219F02E
:107FD00088E0F5DFFFCF84E1DECF1F93182FE3DFCA
:107FE0001150E9F7F2DF1F91089580E0E8DFEE27F6
:047FF000FF270994CA
:027FFE00040479
:0400000300007E007B
:00000001FF
